S0100000524354756B54756B2E7372656317
S11300000C9434000C9449000C9449000C9449005D
S11300100C9449000C9449000C9449000C94490038
S11300200C9449000C9449000C9449000C94490028
S11300300C9449000C9449000C9449000C94490018
S11300400C9449000C9449000C9449000C94490008
S11300500C9449000C9449000C9449000C944900F8
S11300600C9449000C94490011241FBECFEFD8E032
S1130070DEBFCDBF11E0A0E0B1E0E0EFF0E002C0F0
S113008005900D92A030B107D9F70E9471000C942D
S113009076000C94000084B1816084B984B18260DC
S11300A084B984B1846084B984B1886084B984B12A
S11300B0806184B984B1806284B9089585B1826015
S11300C085B985B18E7F85B985B1806185B985B1E2
S11300D0886085B985B18B7F85B985B1806285B922
S11300E008950E944B000E945E00FFCFF894FFCF5A
S9030000FC
